:020000040800F2
:10000000985E00209D010008AB010008B1020008C5
:10001000AF010008B1010008B301000800000000B2
:10002000000000000000000000000000B501000812
:10003000B701000800000000F7010008B90300083C
:10004000BD010008BD010008BD010008BD01000898
:10005000BD010008BD010008BD010008BD01000888
:10006000BD010008BD010008BD010008BD01000878
:10007000BD010008BD010008BD010008BD01000868
:10008000BD010008BD010008BD010008BD01000858
:10009000BD010008BD010008BD010008BD01000848
:1000A000BD010008BD010008BD010008BD01000838
:1000B000BD010008BD010008BD010008BD01000828
:1000C000BD010008BD010008BD010008BD01000818
:1000D000BD010008BD010008BD010008BD01000808
:1000E000BD010008BD010008BD010008BD010008F8
:1000F000BD010008BD010008BD010008BD010008E8
:10010000BD010008BD010008BD010008BD010008D7
:10011000BD010008BD010008BD010008BD010008C7
:100120007D030008BD010008BD010008BD010008F5
:10013000BD010008BD010008BD010008BD010008A7
:10014000BD010008BD010008BD010008BD01000897
:10015000BD010008BD010008BD010008BD01000887
:10016000BD010008BD010008BD010008BD01000877
:10017000BD010008BD010008BD010008000000002D
:10018000BD010008BD010008DFF80CD000F0DEF86A
:100190000048004771030008985E00200848016885
:1001A00041F47001016007480047FEE7FEE7FEE703
:1001B000FEE7FEE7FEE7FEE7FEE7FEE7FEE70000FC
:1001C00088ED00E089010008EFF3108072B67047F7
:1001D00080F310887047444A1368012B04D04FF015
:1001E00001031360414A1060414A116041484FF0D9
:1001F000805101607047EFF3108272B63A4801688F
:1002000051B34FF0000101603848016891B1EFF33C
:1002100009811EF0100F08BF21ED108B21E9F00FAE
:100220004FF000041EF0100F08BF012441F8044DE8
:10023000006801602E490968096808C9B1E8F00F33
:10024000002B18BFB1EC108B81F309884EF0100E13
:10025000002B18BF2EF0100E82F310884EF0040E03
:10026000704723490860EFF3148222F0040282F3FE
:1002700014881E494FF0000008601B494FF0010030
:1002800008601D481D49D0F8002041EA02010160C4
:1002900018484FF08051016019480068006880F3E9
:1002A000088861B662B6BFF34F8FBFF36F8F704798
:1002B0001EF0040F0CBFEFF30880EFF3098020E974
:1002C000F00F40F804ED40F804ED1EF0040F0CBFF1
:1002D00080F3088880F3098800B500F027FF5DF8F7
:1002E00004EB4EF0040E7047440000203C00002058
:1002F0004000002004ED00E020ED00E00000FFFFE2
:1003000008ED00E040EA01039B0703D009E008C9BB
:10031000121F08C0042AFAD203E011F8013B00F8CA
:10032000013B521EF9D27047D2B201E000F8012B16
:10033000491EFBD270470022F6E710B513460A4665
:1003400004461946FFF7F0FF204610BD064C074D46
:1003500006E0E06840F0010394E807009847103495
:10036000AC42F6D3FFF714FF98270008B82700081F
:1003700010B501F0B6FF002010BD000010B500F070
:1003800013FF0B4800F014FA28B1094800F0DAF91D
:10039000084801F052F9064800F01AFA28B104485A
:1003A00000F0D0F9034801F048F900F00DFF10BD4E
:1003B000106402400051002010B500F0F5FE01F07D
:1003C0006FFC00F001FF10BD074800684FF47A7120
:1003D000B0FBF1F0401E4FF0E02148610020886141
:1003E000072008617047000038000020314800688D
:1003F00040F480302F49086000BF2E48006800F4A8
:1004000000300028F9D02B484030006840F0805080
:100410002849403108602848006840F48040264957
:10042000086040F2057025490860224808300068DD
:100430004FF6F04188431F490831086008460068BC
:1004400040F4144008601B48006820F0807019498F
:10045000086000BF1748006800F000700028F9D15C
:1004600017481449091D0860081F006840F0807093
:10047000091F086000BF0F48006800F000700028E6
:10048000F9D00C480830006820F003000949083111
:1004900008600846006840F00200086000BF054898
:1004A0000830006800F00C000828F8D1054806491B
:1004B000086070470038024000700040003C024075
:1004C00019544007007A030A38000020014609B990
:1004D00000207047C8B220B1C8B20E4A105C401C60
:1004E000F7E701F47F4028B10A48C1F30722805C96
:1004F0000930EEE701F47F0028B10648C1F3074256
:10050000805C1130E5E7034800EB1160007819309A
:10051000DFE700000C26000802E008C8121F08C12F
:10052000002AFAD170477047002001E001C1121F74
:10053000002AFBD1704710B500F0A8FD002010BDC7
:1005400010B5044600F0B2FD10BD70B50446206839
:10055000A0F11405284601F003FB002070BD2DE931
:10056000F04105460C469046204601F053FBB8F199
:10057000000F03D0B8F1010F23D105E004F11401FD
:10058000284600F045FE1DE02E680FE0A6F1140796
:1005900094F8350097F83510884206DA04F1140112
:1005A00007F1140000F034FE02E03668AE42EDD1EF
:1005B00000BFAE4204D104F11401284600F028FE29
:1005C00000E000BF00BF0020BDE8F08110B5044688
:1005D00004F1140000F008FE002010BD70B50446C0
:1005E00006480068FFF772FF451E054850F83500C1
:1005F000A0F114062560304670BD0000E400002024
:100600009459002070B501F0C9FA0446FFF7DCFDEB
:100610000546204600F0D4FF04F1440001F0EEFB53
:10062000042084F83400204601F030FA2846FFF711
:10063000CFFD00F0E9FE70BD2DE9FC5F04468B465E
:1006400015461E46DDE90D9ADDF830800F9F04F156
:1006500014004060006000BF25626662C4F8288014
:10066000C4F82C902321D4E90A0200F015FED4E945
:100670000A3C63441A1F0E4BD4E9080100F06CFDDC
:10068000E06184F835A00020A063E763276420635D
:1006900084F834002067606700902346054A2146AD
:1006A000019004F1440001F0BDFB0020BDE8FC9F77
:1006B00005060008B906000870B504462546FFF790
:1006C00083FD06466FF00100286305F1140000F079
:1006D000BFFD284600F026FF3046FFF779FD00F009
:1006E00093FE70BD2DE9F04704460E461746984626
:1006F000DDF8209084F80990607A20F001006072A3
:10070000E66127620020A062C4F82480002506E08C
:1007100004F1140101EBC50000F069FD6D1C012D11
:10072000F6DBBDE8F08770B50546002406E005F16C
:10073000140101EBC40000F094FD641C012CF6DBF5
:1007400070BD00002DE9F0410746384600F0ECF995
:100750000446384600F04CF8054605F0030006490B
:10076000095C3D2000FA01F6042D01DAA66000E0E4
:10077000E660BDE8F0810000F825000808B50A49E8
:10078000884206D20949096841F40011074A1160FC
:1007900005E00649096841F48001044A11600349F3
:1007A0000968009100BF08BD106402403038024063
:1007B00070B50446204600F013FC0546052120468E
:1007C00000F0C0F905400DB1012070BD0020FCE72C
:1007D00070B50446204600F003FC05460321204680
:1007E00000F0B0F905400DB1012070BD0020FCE71C
:1007F00002460648824201D2054900E00349501AE8
:100800001823B0FBF3F0C0B2704700001064024040
:100810001060024070B504462068FFF7AFFF206803
:1008200000F05DF82068FFF78DFF2168A068886000
:100830002168E068C860A08A2168486000252079A6
:1008400000F0070045EA4065A07D00F0030045EA9E
:100850008015207E00F0030045EA4035E07D00F081
:10086000030045EAC025607F00F0030045EA00452B
:10087000A07E08B145F48065607E08B145F400753E
:10088000E07E08B145F48075207F20B145F48025D5
:1008900021682069086194F8200008B145F010052E
:1008A00094F8210008B145F0080594F8220008B139
:1008B00045F0040520680560A07F38B1E07F00F0B6
:1008C000030040F004002168486102E00020216834
:1008D000486170BD016841F0010101607047016825
:1008E00021F00101016000BF016801F00101002950
:1008F000FAD170472DE9F04393B004460E461746EF
:10090000381D85B2FF2229463648FFF70DFD03202A
:1009100034490870200C4870200A8870CC7024225A
:1009200031490AA8FFF7EEFC0D96ADF83C500AA835
:10093000FFF770FF24222C49243101A8FFF7E2FCC5
:10094000ADF8185001A8FFF765FF382005210028F1
:1009500004DB0A07130E254A135408E00A074FEA7E
:10096000126C234A00F00F031B1F02F803C000BFE4
:100970003820002809DB00F01F02012191404209C4
:10098000920002F1E022C2F8001100BF194801F004
:1009900001FD1948FFF79EFF17484830FFF79AFFFF
:1009A00001221146134801F003FDC82001F056F959
:1009B00081464946114800F069FE80460D4801F025
:1009C000F0FC0D48FFF78BFF0B484830FFF787FF1F
:1009D000084801F042FD074801F0D6FC404613B03C
:1009E000BDE8F08324520020B025000800E400E0B8
:1009F00018ED00E0240000201064024000510020A7
:100A000010B505220321144800F0C2F8124800F086
:100A1000ABF802220421104800F016F90522042147
:100A20000D4800F0F5F8032204210B4800F036F9D8
:100A300000220421084800F023F905221146064847
:100A400000F0A6F80621054800F0C3F80621034887
:100A500000F0DAF810BD0000000402400018024067
:100A6000FFF7CEFF244801F0B0FC00231A4623A173
:100A7000244800F0CFFD642001F068F83AE02248F5
:100A80000068401C2049086001F04CFD28B11F4857
:100A90000068401C1D49086004E01D480068401CB7
:100AA0001B4908600A2001F051F801F0DFFC28B171
:100AB00018480068401C1749086004E016480068A0
:100AC000401C15490860104800680A280ED31048D9
:100AD000006858B91048006840B91048006828B943
:100AE0000F48006810B901200E4908604FF4FA70F1
:100AF00001F02CF8C3E70000240000206672787330
:100B00000000000000510020180000200400002018
:100B1000080000200C00002010000020140000201D
:100B2000200000201C00002001460448814201D220
:100B30000348704701481038FBE70000106402408A
:100B40000060024070B505460C462846FFF750FE8F
:100B5000064606F003000349085C0119012088409D
:100B600070BD0000F825000808B5074A821A910AEE
:100B7000064A126801238B401A43044B1A601A4636
:100B80001268009200BF08BD0000024030380240E9
:100B900070B504460D4616462046FFF7E5FF0222D3
:100BA0002946204600F050F832462946204600F0FB
:100BB0002FF800222946204600F054F80322294647
:100BC000204600F06BF801222946204600F058F834
:100BD00070BD30B504460D462046FFF7C5FF012223
:100BE0002946204600F030F800222946204600F031
:100BF00039F801222946204600F050F80022294603
:100C0000204600F03DF830BD01228A4082617047E5
:100C100070B50B46D9105D07EC0E00F1200555F8B4
:100C200021500F26A640B54300F1200646F821507A
:100C3000354655F8216002F00F05A540354300F117
:100C4000200646F8215070BD30B503684D000324DE
:100C5000AC40A343036003684C0002FA04F423434E
:100C6000036030BD10B52AB9436801248C40A3430A
:100C7000436004E0436801248C402343436010BD7B
:100C800030B5C3684D000324AC40A343C360C368C0
:100C90004C0002FA04F42343C36030BD30B58368CE
:100CA0004D000324AC40A343836083684C0002FAE8
:100CB00004F42343836030BD426901238B405A40D2
:100CC0004261704706212148FFF783FF07211F4833
:100CD000FFF77FFF08211D48FFF77BFF06211B4818
:100CE000FFF792FF07211948FFF78EFF08211748E9
:100CF000FFF78AFF29E01648006840B10621134833
:100D0000FFF782FF07211148FFF7D6FF1AE01148CD
:100D1000006828B91048006810B91048006840B150
:100D200007210A48FFF770FF06210848FFF7C4FFB4
:100D300008E0062000F1100101228A4003498A617F
:100D400000BF00BFC82000F001FFD4E7001402403C
:100D50001C000020080000201000002014000020CB
:100D60001FB50A2014214FF48072114BCDE90032D7
:100D7000CDE9021000230F4A0FA1104800F0CCFE6D
:100D80000E4800F033FF05200A214FF400720C4B8F
:100D9000CDE90032CDE9021000230A4A0AA10C482D
:100DA00000F0BAFE0A4800F021FF002004B010BD98
:100DB000A4540020C50C00086C6564002C5400206D
:100DC0001C560020610A0008666C61736800000010
:100DD000A455002010B5044600F02AF9FFF7C0FF23
:100DE00010BD70B5846A4D686219914214D01478B0
:100DF00004F0010484B9C46A94420DD0046B944297
:100E000000D101630024146054684C60846A0C1B98
:100E1000856A56683544AC60846A8D6863198B4274
:100E200011D01C7804F001046CB9046B8C4200D121
:100E3000036300240C604C685C60846A1C1B856A38
:100E40004E683544AC6070BD2DE9F04F86B00D465C
:100E50009C46DDE9106401960F9B04F04008B8F150
:100E6000000F02D0DFF8708101E0DFF87081CDF86B
:100E7000008004F01008B8F1000F01D024F0010444
:100E800004F00108B8F1000F02D04FF0300801E083
:100E90004FF02008C246002704F00208B8F1000F06
:100EA00011D0002A02DA2D2752420CE004F0040887
:100EB000B8F1000F01D02B2705E004F00808B8F1C5
:100EC000000F00D02027002142B94FF0300B884698
:100ED000491C0DF1080909F808B01DE01AE0E146C7
:100EE000B9F10A0F08D14FF00A0BB2FBFBFE0BFB66
:100EF0001E28B2FBFBF202E002F00F08120900BF4D
:100F0000DDF8009019F808B08846491C0DF1080971
:100F100009F808B0002AE2D1B14200DD0E469B1B61
:100F200004F01108B8F1000F10D117B1002B00DD4B
:100F30005B1E06E0A84203D24FF0200880F8008034
:100F4000401CB3F10008A3F10103F3DC27B1A84270
:100F500000D207705B1E401C04F01008B8F1000FAF
:100F60000AD104E0A84201D280F800A0401CB3F1ED
:100F70000008A3F10103F5DC06E0A84203D24FF01C
:100F8000300880F80080401CB046761E8845F4DCAE
:100F900008E0A84205D20DF1080818F8018080F891
:100FA0000080401CB1F10008A1F1010104DDDDF871
:100FB0000480B8F1000FECD106E0A84203D24FF054
:100FC000200880F80080401CB3F10008A3F1010361
:100FD000F3DC06B0BDE8F08F1D2700080C270008E1
:100FE00070B505462846FFF79FFD04462846FFF7E3
:100FF000FFFB0646042E01DA206870BD6068FCE73E
:101000001CB514200A214FF480730022CDE9001092
:10101000044905A000F0F3FC0446204600F0E6FD7C
:101020001CBD0000D50D00086D61696E0000000058
:1010300010B5044C02E020688047241D0248844219
:10104000F9D310BD902700089427000870B519E067
:1010500000F0FEFC044604B915E0266F204600F0BF
:10106000CAF90546012D02D1204600F075F90EB1EE
:101070002046B0472DB9A06A00F03AF8204600F0AB
:1010800059F900BFE4E700BF70BD000010B5FFF7DD
:101090009BF8044604480088401C00B202490880BE
:1010A0002046FFF795F810BDE800002010B5FFF7C7
:1010B0008BF804460C480088401E00B20A4908809C
:1010C0000846B0F9000000280ADC0020088020460D
:1010D000FFF77EF80548006828B100F095F902E0B6
:1010E0002046FFF775F810BDE8000020EC00002056
:1010F00070B5044604B970BDFFF71DFA05462046D9
:1011000000F089FB2846FFF71BFA00BFF3E7000059
:1011100010B5FFF76BF9FFF757F90349A1F5A040A8
:1011200000F016FC10BD0000005100202DE9F04138
:10113000044604F12805271D0648006840B12846EA
:1011400004490968884706460EB9BDE8F08100BF2A
:1011500000BFFEE748000020F0B504460D461646E5
:10116000301D20F0070044380146002203E00D4FF7
:1011700041F82270521C112AF9D34D624FF0000C35
:10118000C1F828C0C1F82CC0C1F830C0C1F834C0C3
:101190008B63CC634FF0807CC1F840C000270F60A8
:1011A000F0BD0000EFBEADDE10B5FFF70DF8044650
:1011B00004480078401C034908702046FFF708F8EF
:1011C00010BD00005800002010B5FEF7FDFF0446DA
:1011D00004480078401E034908702046FEF7F8FFD7
:1011E00010BD000058000020406000607047406063
:1011F000006070470268516002680A6001604860E0
:1012000070470268516002680A6001604860704778
:101210004268116042684A60416008607047014658
:101220000868884201D1012070470020FCE7014690
:101230000868884201D1012070470020FCE7D0E90E
:1012400000215160D0E900121160406000607047D9
:10125000D0E900215160D0E90012116040600060C7
:101260007047D0E900215160D0E900121160406060
:101270000060704770B50446FFF75DF906462146E9
:101280000448006800F03DFA05463046FFF758F97B
:10129000284670BD90000020F0B50C460546E6B229
:1012A000042A15D300F0030797B9014646EA06233E
:1012B00043EA034304E008C108C108C108C1103A69
:1012C000102AF8D201E008C1121F042AFBD20D46F1
:1012D00001E005F8016B171EA2F10102F9D1F0BD82
:1012E0002DE9F04106460F46304600F045F8054628
:1012F000E868FFF7BFFF044614B90020BDE8F0819D
:1013000000212046EA68FFF7C7FF267200206072BE
:1013100008223946204600F000FBFEF755FF8046C4
:1013200004F10C01281DFFF765FF4046FEF750FF52
:101330002046E3E770B5044600202072FEF744FF24
:10134000054604F10C00FFF77AFF2846FEF740FF40
:101350002046FFF7CDFE70BD70B504460020207218
:10136000FEF732FF054604F10C00FFF768FF284640
:10137000FEF72EFF70BD0000024600210AE007487C
:1013800000EB01100078904203D1044800EB0110FB
:101390007047491C0529F2DB0020F9E79400002082
:1013A0002DE9F04704460D46904600262846FFF7F3
:1013B000E3FF0746FFF76AFE7E6802E0A6F10C0035
:1013C0003668381D8642F9D1FFF770FE45F080007F
:1013D000207208224146204600F09FFAFEF7F4FEF4
:1013E000814604F10C01381DFFF704FF4846FEF763
:1013F000EFFEBDE8F0870146087A00F0800008B1F2
:10140000012070470020FCE7F8B5FEF7DDFE064638
:101410003F480088002875D13E480068002870D0F9
:1014200000276846FFF7DAF804463B48006890F862
:10143000340000F00700032825D13748006890F8F1
:1014400035000099884202D23348046811E03248DE
:10145000006890F835000099884209D12E4800684C
:1014600090F8340000F0080010B92B48046800E040
:1014700001272948006890F8340020F00800264928
:10148000096881F8340024480068844228D0234940
:101490000098087020480568046017B1284600F0DD
:1014A00041F8204600F08CF894F8340020F0070052
:1014B00040F0030084F834001948007848B904F17A
:1014C0001C0105F11C00FEF786FE3046FEF780FE8B
:1014D0001CE004F11C0105F11C00FEF77CFE0FE08E
:1014E0000D48006800F06CF80B48006890F8340074
:1014F00020F0070040F003000749096881F8340034
:1015000000BF00BF3046FEF763FE00BFF8BD00001D
:10151000E8000020E4000020EC000020F0000020A3
:101520005800002070B50446FEF74EFE05462148DF
:101530000068844208D194F8340020F0070040F09D
:10154000030084F8340030E014F8340F20F0070072
:1015500040F00100207014F8340900F0080070B168
:1015600094F83520144B03EBC20004F114014268D7
:10157000116042684A604160086000BF0EE094F864
:1015800035200D4B03EBC20004F1140102685160D9
:1015900002680A600160486000BF00BF0749A06B95
:1015A000096808430549086000BF2846FEF710FE99
:1015B00070BD0000EC00002094590020E4000020E1
:1015C00070B50446FEF700FE054604F11400D0E9AC
:1015D00000215160D0E9001211604060006000BF3E
:1015E00094F83510094A02EBC1000168814201D12B
:1015F000012100E0002129B10548A16B0068884362
:10160000034908602846FEF7E3FD70BD94590020A9
:10161000E40000202DE9F04104460D4616461F4621
:101620002A4602212046FFF7BBFE2046FEF7CEFFEA
:10163000A68367720020BDE8F08170B504460025DE
:10164000FEF7C2FD064604F11400FFF7E8FD28B9D5
:1016500004F11400FEF779FF01250EE0A08B4FF690
:10166000FF71884203DAA08B401CA08305E030465E
:10167000FEF7AEFD6FF0020070BD3046FEF7A8FD2C
:10168000012D01D1FFF7C0FE0020F5E773B5054637
:10169000FEF79AFD0646A88B002806DDA88B401EA3
:1016A000A8833046FEF794FD28E0019828B930461B
:1016B000FEF78EFD6FF001007CBD00F06FFA04466E
:1016C000002020636A7A214605F11400FEF747FFE7
:1016D0000198002809DD01AA002104F1440000F06E
:1016E00059FB04F1440000F0B5FB3046FEF770FDF5
:1016F000FFF78AFE206B08B1206BDDE70020DBE7F7
:101700007047F0B507460B460BB90020F0BD3946CF
:10171000D81C20F003030C2B00D20C23486B9842FA
:1017200001D20020F2E7D1F828C0086BA0EB0C042E
:101730006BE0886A0219107800F00100002861D17E
:1017400004F10C00D2F804C0ACEB0000984259D36D
:1017500004F10C00D2F804C0ACEB000C03F118004B
:10176000844523D304F10C00C618886A851921F03A
:101770000100286050686860AC605660D5F804C00D
:10178000486B0C30844504D0886AD5F804C06044A6
:10179000866003F10C00D1F820C060440862D1E9F2
:1017A00008C0604513D2086A486210E05068D1F85A
:1017B00028C0A2EB0C0CA0EB0C00D1F820C06044B8
:1017C0000862D1E908C0604501D2086A486221F088
:1017D0000100401C1060086B904210D106E0D1F867
:1017E00030C0886ADCF804C060440863086B007885
:1017F00000F0010018B1D1E90BC06045EFD102F152
:101800000C0083E7886A20444468486BC01AA042F1
:101810008FD200207AE770B5064606B970BDA6F1F2
:101820000C04206820F0010525F001002060286BE1
:10183000A04200D92C636068A96A611A401A296A1B
:10184000081A286221462846FFF7CBFA00BFE5E7D1
:101850002DE9F74F0E469246F01C20F0030404F1E8
:10186000380B0BF1030020F0030706EB0A0020F011
:101870000308B8F1180F08D9A8F11800584504D387
:10188000A8EB0700A0F1180902E00020BDE8FE8FD8
:10189000382200212046FFF7FFFC0C212046009A49
:1018A000FFF77EFD12A06061A761C4F81C90C4F828
:1018B0003490A762A56A24F001002860606B0C30A8
:1018C00068600020A860A06A69680844E06224F0AB
:1018D0000100401CE16A0860606B0C30E16A4860FE
:1018E000606B0C30E16A8860A06A20632046CDE717
:1018F000736D616C6C0000000FB438B5044606A827
:1019000000902046009A059900F0D8FC054600207A
:101910000090284638BC5DF814FB70B50346A2B1B0
:1019200018460C4600BF14F8016B00F8016B3EB975
:1019300002E0002500F8015B551E2A1EF9D102E0E5
:10194000551E2A1EEFD100BF00BF184670BD000013
:101950002DE9F04104460D46E01C20F0030625F079
:101960000307BA1B214604A0FFF772FF0449086071
:1019700000BF00BFBDE8F081686561700000000035
:10198000900000200020094A1080014607E0084A24
:1019900002EBC1004060006000BF481C01462029E6
:1019A000F5DB0020034A106070470000E8000020CB
:1019B00094590020E400002038B56846FEF70EFE7A
:1019C0000446064804602046FFF7FAFD032084F829
:1019D000340004F11C00FEF744FC38BDEC0000208C
:1019E00010B5002405E0044901EBC400FFF7FFFB3C
:1019F000641C002CF7D010BDF400002070472DE9C6
:101A0000FF5F06460F4690461D46DDE90EAB3146A8
:101A10000120FFF765FC8146B9F1000F03D10020DA
:101A200004B0BDE8F09F2846FFF724FC044624B923
:101A30004846FFF77FFC0020F2E743463A4631462E
:101A400048468DE8300CFEF7F7FD4846E8E7000011
:101A500070B500250C4C2068A04213D02068A0F17E
:101A60001405FEF7B1FB064605F11400D0E900218C
:101A70005160D0E9001211604060006000BF304644
:101A8000FEF7A6FB284670BD500000200246054820
:101A900002F114010368596003680B60016048603B
:101AA00000BF70475000002001E0FFF7CFFAFCE7CD
:101AB00010B586B0002420E0224612A104A8FFF74A
:101AC0001BFF20211F22CB00104800EB0420CDE992
:101AD000013203910090C4EB04110D4A02EBC100E6
:101AE00000230C4A04A900F017F8C4EB0411084ABB
:101AF00002EBC10000F07AF8641C002CDCD006B0C8
:101B000010BD00007469646C652564009458002061
:101B10001C580020A91A00082DE9FF5F05460C4655
:101B200016461F46DDE910ABDDE90E89224601218C
:101B30002846FFF735FC3B463246214628468DE8CD
:101B4000000FFEF779FD04B0BDE8F09F70B50446C4
:101B5000204600F083F80546284600F025F870BDC1
:101B600070B5044694F8340000F00700022802D053
:101B70004FF0FF3070BDFEF727FB054604F114005F
:101B8000FFF766FB04F1440000F0E0F92046FFF7A0
:101B9000C9FC2846FEF71CFB0020EBE70148006863
:101BA00070470000EC00002031B5FFF7F7FF044656
:101BB000FEF70AFB054600202063204600F02AF8C5
:101BC0006A46002104F1440000F0E4F804F1440006
:101BD00000F040F92846FEF7FBFAFFF715FC206BF2
:101BE000801C08B900202063206B38BD10B5044666
:101BF00094F8351001208840A063022084F8340056
:101C00002046FFF7ADFFFFF7C9FF08B1FFF7FCFB68
:101C1000002010BD70B5044694F8340000F00705AC
:101C2000012D04D0032D02D04FF0FF3070BDFEF720
:101C3000CBFA06462046FFF7C3FC94F8340020F0A8
:101C4000070040F0020084F8340004F1440000F082
:101C50007DF93046FEF7BCFA0020E7E7014600298F
:101C600002DA4FF0FF3014E04FF47A7291FBF2F297
:101C70004FF47A7302FB03F01A4691FBF2F302FB76
:101C800013124FF47A735A4302F2E73292FBF3F2E3
:101C90001044704701480068704700004C00002065
:101CA00070B5FEF791FA054610480068401C0F49D0
:101CB0000860FFF773FF0446206C401E2064206C10
:101CC00068B9E06B206494F8340040F0080084F8B0
:101CD00034002846FEF77CFAFFF796FB02E0284620
:101CE000FEF776FA00F004F870BD00004C0000200A
:101CF0007CB56846FFF77BFAFFF7CCFF0546FEF799
:101D000063FA06463AE022480068A0F11404A06A8B
:101D1000281A6FF0004188422ED22046FEF703FDBC
:101D2000607A00F0020018B9607A20F00100607259
:101D300004F114016846FFF764FAD4E907108847F4
:101D4000FFF7A8FF05466846FFF771FA00B115E0F6
:101D500004F11400FFF785FA607A00F0020060B128
:101D6000607A00F0010040B1607A20F001006072FA
:101D7000204600F06FF800E005E000BF0448FFF7E0
:101D800056FA0028BFD000BF3046FEF721FA7CBDCE
:101D9000F40000202DE9F04104460E461546FEF7FA
:101DA00013FA0746062E21D2DFE806F00603090ED5
:101DB000131D606A28601AE02868606217E0607A84
:101DC00020F00200607212E0607A40F0020060725F
:101DD0000DE0607A00F0010010B10120286001E000
:101DE0000020286003E0A06A286000E000BF00BF78
:101DF0003846FEF7EDF90020BDE8F08170B50446E5
:101E0000FEF7E2F905462046FEF78DFC607A20F0E9
:101E1000010060722846FEF7DBF92046FFF79CFAC6
:101E2000002070BD2DE9F84307460C4615461E46B6
:101E3000DDE9088922460A213846FFF7B1FA434610
:101E4000324629463846CDF80090FEF74BFCBDE8F7
:101E5000F88300002DE9F84305464FF00008FEF72F
:101E6000B3F981462846FEF75EFC687A20F001004F
:101E70006872FFF70FFF696A0844A862314F009744
:101E800000242AE019E05DF824201168142202EBF6
:101E9000C402881A826AAB6AD21A00D108E0826A48
:101EA000AB6AD21A6FF000439A4200D20CE000BF36
:101EB0005DF8240000684DF824005DF8240007EB6D
:101EC000C40149688842DED100BF2CB15DF824000E
:101ED0000830611C4DF82100641C002CD2D01A4837
:101EE0000068401C184908600846066805F114019E
:101EF0000098FFF786F9022412E006F0030060B9AB
:101F0000C4F1010305F1140202EBC301C4F10102A3
:101F10005DF82200FFF775F900E003E0B608641CE5
:101F2000012CEAD900BF687A40F001006872484687
:101F3000FEF74EF9B8F1000F01D0FFF765FA002067
:101F4000BDE8F883F4000020FC00002070B50446D2
:101F5000607A00F0010010B94FF0FF3070BDFEF75D
:101F600033F905462046FEF7DEFB607A20F00100DB
:101F700060722846FEF72CF90020EFE72DE9FF4FAD
:101F800089B081464C460A9809EB00064E4504D2BA
:101F90004FF0FF36A6EB09000A9077E10B98007826
:101FA000252806D0B44202D20B9800782070641C19
:101FB00069E1002526E00B98401C0B900B980078F7
:101FC0002D2802D145F010051CE00B9800782B2835
:101FD00002D145F0040515E00B980078202802D1C5
:101FE00045F008050EE00B980078232802D145F053
:101FF000200507E00B980078302802D145F0010554
:1020000000E000E0D7E700BF4FF0FF370B98007803
:1020100030380A2804D20BA800F078F907460EE001
:102020000B9800782A280AD10B98401C0B900C982A
:1020300080C80C90002F02DA7F4245F010054FF067
:10204000FF3A0B9800782E281CD10B98401C0B905F
:102050000B98007830380A2804D20BA800F056F903
:1020600082460AE00B9800782A2806D10B98401C7B
:102070000B900C9850F804AB0C90BAF1000F01DAF9
:102080004FF0000A002004900B980078682803D0D5
:102090000B9800786C2805D10B98007804900B9869
:1020A000401C0B900A2005900B9800786F2873D085
:1020B0000CDC632813D004DC25286ED058286DD1A1
:1020C00095E064286BD06928F9D197E0702873D027
:1020D000732825D075286ED07828F0D18AE005F0D5
:1020E000100040B904E0B44201D220202070641CEA
:1020F000781E071EF7DC0C9810F8041B0C90C8B271
:102100000790B44201D207982070641C04E0B442E6
:1021100001D220202070641C781E071EF7DCB2E07C
:102120000C98006806900C98001D0C90069808B951
:1021300060A006904FF0000801E008F10108B845E2
:1021400004D0069810F808000028F6D1BAF1000F64
:1021500002DDD04500DDD04605F0100048B904E0AE
:10216000B44201D220202070641C38467F1E4045B6
:10217000F6DC002008900BE0B44202D2069800780A
:102180002070641C0698401C06900898401C08901B
:1021900008984045F0DB09E026E01FE032E02CE043
:1021A0000AE0B44201D220202070641C38467F1E11
:1021B0004045F6DC67E024E0781C10B9082745F0BC
:1021C0000105CDE9007A02950C9804C81023314628
:1021D0000C902046FEF738FE044654E0B44201D28B
:1021E00025202070641C4EE0082005901DE045F07D
:1021F000400500BF1020059017E000BF45F0020524
:1022000000BF12E0B44201D225202070641C0B985C
:10221000007830B1B44202D20B9800782070641C70
:1022200002E00B98401E0B902DE000BF04986C2834
:1022300007D10C9850F804BB0C9005F00200B8B11F
:1022400016E0049868280BD10C9830F8041B1FFA8C
:1022500081FB0C9005F0020050B10FFA8BFB07E0F8
:102260000C9850F804BB0C9005F0020000B100BFC0
:10227000CDE9007A02955A4631462046059BFEF785
:10228000E3FD044600BF0B98401C0B900B980078B0
:1022900000287FF483AE0A9838B1B44202D20020FD
:1022A000207002E0002006F8010CA4EB09000DB03C
:1022B000BDE8F08F284E554C4C29000037B5054637
:1022C0000C4622464FF0FF312846029BFFF756FE90
:1022D0003EBD00207047002070470020704700205E
:1022E000704710B5FDF770FFFEF712FFFFF708FA11
:1022F000FFF776FBFFF746FBFEF782FEFFF77EFB5C
:10230000FFF7D6FBFFF758FB002010BD0146002069
:1023100009E00B685A1C0A601A7800EB800302EB94
:102320004302A2F130000A681278303A0A2AF0D348
:10233000704700001049884206D11049096841F4ED
:1023400080510E4A116016E00D49884208D10B49B0
:10235000091F096841F48041084A121F11600AE010
:102360000849884207D10549091F096841F400411D
:10237000024A121F11607047003001404438024089
:1023800000380040003C0040027A01219140426840
:1023900091617047017A103101228A4041688A6157
:1023A00070470168496821F0030102685160704775
:1023B00010B50B46046861680BB141F002010AB127
:1023C00041F001010468616010BD70B504462068E9
:1023D000FFF7B0FF217A6068FEF7FBFB217A6068A7
:1023E00001228A40826100BF0020216808602168C4
:1023F00048604FF44175607A00F0070045EAC00577
:10240000A07A08B145F00205E07A08B145F001056F
:10241000207B08B145F40065607B08B145F080057C
:10242000206805602068006840F04000216808606E
:1024300070BD024600BF1068806800F002000028EE
:10244000F9D01068017300BF1068806800F00100C7
:102450000028F9D01068007B704700BF01688968C8
:1024600001F080010029F9D1704700002DE9F04109
:102470004FF482712748FDF75EFF4FF480722549C3
:102480000020FEF737FA07463FB123480068401C9A
:10249000214908600020BDE8F0810120FFF756FBCC
:1024A0004FF482711D48FDF746FF4FF480721B49BF
:1024B0000020FEF71FFA044634B117480068401C9C
:1024C000154908600020E6E7124D2D1D134E361DFC
:1024D00000210CE0685C725C904206D010480068F5
:1024E000401C0F4A10600020D5E7481C81B2FF292C
:1024F000F0DD4FF00108002006E0295C11B14FF03B
:10250000000803E0411C88B2FF28F6DD00BF01206F
:10251000C1E70000205100201400002028530020B3
:102520002000002008B52048FFF734FF9F211E48F7
:10253000FFF77FFFFF211C48FFF77BFF8DF80000AE
:10254000FF211948FFF775FF8DF80100FF2116489C
:10255000FFF76FFF8DF802001348FFF77EFF124868
:10256000FFF712FF9DF8000000049DF8011040EAFB
:1025700001209DF8021008430C4908609DF80000F6
:10258000EF2809D19DF80100402805D19DF80200EF
:10259000182801D1012008BD9DF80000EF2801D1C5
:1025A0000120F8E70020F6E72400002000000020CA
:1025B00010640240030000000C30014000000000E5
:1025C0000000000000000000000001000002000008
:1025D0000100010058640240030000000C3001407B
:1025E0002452002000000000000001000000010053
:1025F0000001000000000000000610160B0C0D0E7C
:102600000F10112F38393A3B3C4445460000010079
:1026100002000100030001000200010004000100AB
:10262000020001000300010002000100050001009A
:10263000020001000300010002000100040001008B
:102640000200010003000100020001000600010079
:10265000020001000300010002000100040001006B
:10266000020001000300010002000100050001005A
:10267000020001000300010002000100040001004B
:102680000200010003000100020001000700010038
:10269000020001000300010002000100040001002B
:1026A000020001000300010002000100050001001A
:1026B000020001000300010002000100040001000B
:1026C00002000100030001000200010006000100F9
:1026D00002000100030001000200010004000100EB
:1026E00002000100030001000200010005000100DA
:1026F00002000100030001000200010004000100CB
:1027000002000100030001000200010030313233F9
:10271000343536373839616263646566003031328A
:10272000333435363738394142434445460000009A
:102730004F4B000045494E56414C00004552534610
:10274000554C4C00454E4F4D454D000045494F00FE
:102750004552524F52000000454E4F53595300000E
:1027600045494E54525054004554494D4F5554001C
:1027700045554E4B4E4F57004542555359000000AA
:102780004552534550545900DF220008D722000813
:10279000D3220008DB220008B82700080000002030
:1027A0000001000018050008B828000800010020FA
:1027B000985D0000280500080000000000000000EF
:1027C0000000000000000000000000000000000009
:1027D0000000000000000000000000000030014088
:1027E000001802400601010100000000FF00000087
:1027F0000024F400000000000000000000000000C1
:1028000000000000000000005000002050000020E8
:1028100000000000000000003027000850270008DA
:10282000682700083C270008802700084427000884
:1028300058270008782700084C2700086027000860
:102840003427000870270008000000000100000085
:10285000980000209800002078000000020000008E
:10286000A8000020A80000202000000005000000B3
:10287000B8000020B8000020300000000A0000006E
:10288000C8000020C80000202C0000000C00000040
:10289000D8000020D8000020280000000000000020
:1028A0000000000000000000000000000000000028
:0828B000000000000000000020
:040000050800018965
:00000001FF
