:020000040800F2
:10000000B8190020D9020008E7020008850200089C
:10001000EB020008ED020008EF02000800000000FB
:10002000000000000000000000000000F1020008D5
:10003000F302000800000000CB01000833030008B1
:10004000F9020008F9020008F9020008F9020008A4
:10005000F9020008F9020008F9020008F902000894
:10006000F9020008F9020008F9020008F902000884
:10007000F9020008F9020008F9020008F902000874
:10008000F9020008F9020008F9020008F902000864
:10009000F9020008F9020008F9020008F902000854
:1000A000F9020008F9020008F9020008F902000844
:1000B000F9020008F9020008F9020008F902000834
:1000C000F9020008F9020008F9020008F902000824
:1000D000F9020008F9020008F9020008F902000814
:1000E000F9020008F9020008F9020008F902000804
:1000F000F9020008F9020008F9020008F9020008F4
:10010000F9020008F9020008F9020008F9020008E3
:10011000F9020008F9020008F9020008F9020008D3
:10012000F9020008F9020008F9020008F9020008C3
:10013000F9020008F9020008F9020008F9020008B3
:10014000F9020008F9020008F9020008F9020008A3
:10015000F9020008F9020008F9020008F902000893
:10016000F9020008F9020008F9020008F902000883
:10017000F9020008F9020008F90200080000000076
:10018000F9020008F9020008DFF80CD000F0BAF814
:100190000048004729030008B8190020EFF3108039
:1001A00072B6704780F310887047444A1368012B79
:1001B00004D04FF001031360414A1060414A1160BE
:1001C00041484FF0805101607047EFF3108272B6E2
:1001D0003A48016851B34FF00001016038480168A6
:1001E00091B1EFF309811EF0100F08BF21ED108BC4
:1001F00021E9F00F4FF000041EF0100F08BF01249A
:1002000041F8044D006801602E490968096808C971
:10021000B1E8F00F002B18BFB1EC108B81F3098807
:100220004EF0100E002B18BF2EF0100E82F3108827
:100230004EF0040E704723490860EFF3148222F059
:10024000040282F314881E494FF0000008601B4925
:100250004FF0010008601D481D49D0F8002041EA18
:100260000201016018484FF0805101601948006890
:10027000006880F3088861B662B6BFF34F8FBFF3A2
:100280006F8F70471EF0040F0CBFEFF30880EFF381
:10029000098020E9F00F40F804ED40F804ED1EF06D
:1002A000040F0CBF80F3088880F3098800B500F0C4
:1002B0007FFB5DF804EB4EF0040E7047C000002099
:1002C000B8000020BC00002004ED00E020ED00E0BC
:1002D0000000FFFF08ED00E00848016841F47001EC
:1002E000016007480047FEE7FEE7FEE7FEE7FEE79E
:1002F000FEE7FEE7FEE7FEE7FEE7000088ED00E030
:1003000089010008064C074D06E0E06840F0010353
:1003100094E8070098471034AC42F6D3FFF738FF53
:10032000301C0008501C000810B501F094FB0020A0
:1003300010BD10B500F07AFB01F06CF800F086FB00
:1003400010BD0000074800684FF47A71B0FBF1F06F
:10035000401E4FF0E02148610020886107200861BD
:1003600070470000000000203148006840F48030F1
:100370002F49086000BF2E48006800F400300028B4
:10038000F9D02B484030006840F080502849403177
:1003900008602848006840F480402649086040F220
:1003A0000570254908602248083000684FF6F04182
:1003B00088431F49083108600846006840F414402B
:1003C00008601B48006820F080701949086000BF71
:1003D0001748006800F000700028F9D11748144948
:1003E000091D0860081F006840F08070091F086040
:1003F00000BF0F48006800F000700028F9D00C48DA
:100400000830006820F003000949083108600846F8
:10041000006840F00200086000BF0548083000682E
:1004200000F00C000828F8D105480649086070471C
:100430000038024000700040003C02401954400760
:10044000007A030A00000020014609B90020704725
:10045000C8B220B1C8B20E4A105C401CF7E701F4E4
:100460007F4028B10A48C1F30722805C0930EEE7DB
:1004700001F47F0028B10648C1F30742805C1130C7
:10048000E5E7034800EB116000781930DFE7000072
:10049000A61A000802E008C8121F08C1002AFAD1F3
:1004A00070477047002001E001C1121F002AFBD1F4
:1004B000704710B500F02CFA002010BD10B50446AE
:1004C00000F036FA10BD000070B50446064800681A
:1004D000FFF7BAFF451E054850F83500A0F1140695
:1004E0002560304670BD00009C000020B81400203C
:1004F00070B500F00DFF0446FFF750FE054620469C
:1005000000F08EFC04F1440001F032F8042084F87D
:100510003400204600F074FE2846FFF743FE00F04A
:10052000A3FB70BD2DE9FC5F04468B4615461E46B5
:10053000DDE90D9ADDF830800F9F04F11400406072
:10054000006000BF25626662C4F82880C4F82C9061
:100550002321D4E90A0200F0CFFAD4E90A3C63442B
:100560001A1F0E4BD4E9080100F038FAE06184F854
:1005700035A00020A063E7632764206384F834007B
:100580002067606700902346054A2146019004F1E8
:10059000440001F001F80020BDE8FC9FF1040008D0
:1005A000A505000870B504462546FFF7F7FD064689
:1005B0006FF00100286305F1140000F079FA284675
:1005C00000F0E0FB3046FFF7EDFD00F04DFB70BDA5
:1005D0002DE9F04704460E4617469846DDF8209070
:1005E00084F80990607A20F001006072E661276269
:1005F0000020A062C4F82480002506E004F1140164
:1006000001EBC50000F032FA6D1C012DF6DBBDE8F0
:10061000F08770B50546002406E005F1140101EBF2
:10062000C40000F04EFA641C012CF6DB70BD00BF64
:100630004FF47A7000F044FEFAE700001FB50A207C
:1006400014214FF40072084BCDE90032CDE90210BD
:100650000023064A06A1074800F018FE054800F0EE
:100660007FFE002004B010BD400100202F060008CE
:1006700061707000C800002010B5044600F01AF93F
:10068000FFF7DCFF10BD70B5846A4D6862199142B6
:1006900014D0147804F0010484B9C46A94420DD0D3
:1006A000046B944200D101630024146054684C60D0
:1006B000846A0C1B856A56683544AC60846A8D6810
:1006C00063198B4211D01C7804F001046CB9046BDF
:1006D0008C4200D1036300240C604C685C60846A27
:1006E0001C1B856A4E683544AC6070BD2DE9F04F27
:1006F00086B00D469C46DDE9106401960F9B04F020
:100700004008B8F1000F02D0DFF8708101E0DFF897
:100710007081CDF8008004F01008B8F1000F01D00E
:1007200024F0010404F00108B8F1000F02D04FF0EA
:10073000300801E04FF02008C246002704F002080C
:10074000B8F1000F11D0002A02DA2D2752420CE036
:1007500004F00408B8F1000F01D02B2705E004F0E5
:100760000808B8F1000F00D02027002142B94FF04F
:10077000300B8846491C0DF1080909F808B01DE046
:100780001AE0E146B9F10A0F08D14FF00A0BB2FBAB
:10079000FBFE0BFB1E28B2FBFBF202E002F00F088F
:1007A000120900BFDDF8009019F808B08846491C0E
:1007B0000DF1080909F808B0002AE2D1B14200DDC4
:1007C0000E469B1B04F01108B8F1000F10D117B1B1
:1007D000002B00DD5B1E06E0A84203D24FF020088C
:1007E00080F80080401CB3F10008A3F10103F3DCA2
:1007F00027B1A84200D207705B1E401C04F010080D
:10080000B8F1000F0AD104E0A84201D280F800A09C
:10081000401CB3F10008A3F10103F5DC06E0A84297
:1008200003D24FF0300880F80080401CB046761E9E
:100830008845F4DC08E0A84205D20DF1080818F854
:10084000018080F80080401CB1F10008A1F1010195
:1008500004DDDDF80480B8F1000FECD106E0A84219
:1008600003D24FF0200880F80080401CB3F100084C
:10087000A3F10103F3DC06B0BDE8F08FB71B00085D
:10088000A61B00081CB514200A214FF48073002217
:10089000CDE90010044905A000F06BFC0446204699
:1008A00000F05EFD1CBD0000790600086D61696EF8
:1008B0000000000010B5044C02E020688047241DB1
:1008C00002488442F9D310BD281C00082C1C0008E3
:1008D00070B519E000F076FC044604B915E0266F07
:1008E000204600F0B8F90546012D02D1204600F05F
:1008F00063F90EB12046B0472DB9A06A00F03AF86E
:10090000204600F047F900BFE4E700BF70BD0000DB
:1009100010B5FFF743FC044604480088401C00B2B1
:10092000024908802046FFF73DFC10BDA0000020D2
:1009300010B5FFF733FC04460C480088401E00B297
:100940000A4908800846B0F9000000280ADC0020A7
:1009500008802046FFF726FC0548006828B100F013
:1009600083F902E02046FFF71DFC10BDA000002027
:10097000A400002070B5044604B970BDFFF799FDCE
:100980000546204600F001FB2846FFF797FD00BF13
:10099000F3E7000010B5FFF7E7FCFFF7D3FC0349CE
:1009A000A1F5805000F08EFB10BD00004013002028
:1009B0002DE9F041044604F12805271D064800688A
:1009C00040B1284604490968884706460EB9BDE883
:1009D000F08100BF00BFFEE7C4000020F0B5044670
:1009E0000D461646301D20F007004438014600220F
:1009F00003E00D4F41F82270521C112AF9D34D62C9
:100A00004FF0000CC1F828C0C1F82CC0C1F830C0AC
:100A1000C1F834C08B63CC634FF0807CC1F840C018
:100A200000270F60F0BD0000EFBEADDE10B5FFF790
:100A3000B5FB044604480078401C03490870204672
:100A4000FFF7B0FB10BD00001000002010B5FFF74D
:100A5000A5FB044604480078401E03490870204660
:100A6000FFF7A0FB10BD00001000002040600060F8
:100A700070470268516002680A6001604860704710
:100A80000268516002680A60016048607047014670
:100A90000868884201D1012070470020FCE7D0E9B6
:100AA00000215160D0E90012116040600060704781
:100AB000D0E900215160D0E900121160406000606F
:100AC0007047D0E900215160D0E900121160406008
:100AD0000060704770B50446FFF7EBFC0646214600
:100AE0000448006800F0C7F905463046FFF7E6FC09
:100AF000284670BD48000020F0B50C460546E6B219
:100B0000042A15D300F0030797B9014646EA0623E5
:100B100043EA034304E008C108C108C108C1103A10
:100B2000102AF8D201E008C1121F042AFBD20D4698
:100B300001E005F8016B171EA2F10102F9D1F0BD29
:100B40002DE9F04106460F46304600F045F80546CF
:100B5000E868FFF7BFFF044614B90020BDE8F08144
:100B600000212046EA68FFF7C7FF26720020607266
:100B700008223946204600F08AFAFFF70FFB80462C
:100B800004F10C01281DFFF774FF4046FFF70AFB34
:100B90002046E3E770B5044600202072FFF7FEFA16
:100BA000054604F10C00FFF77AFF2846FFF7FAFA32
:100BB0002046FFF7DFFE70BD70B5044600202072AE
:100BC000FFF7ECFA054604F10C00FFF768FF284632
:100BD000FFF7E8FA70BD0000024600210AE007486E
:100BE00000EB01100078904203D1044800EB0110A3
:100BF0007047491C0529F2DB0020F9E74C00002072
:100C00002DE9F04704460D46904600262846FFF79A
:100C1000E3FF0746FFF77CFE7E6802E0A6F10C00CA
:100C20003668381D8642F9D1FFF782FE45F0800014
:100C3000207208224146204600F029FAFFF7AEFA5A
:100C4000814604F10C01381DFFF713FF4846FFF7FA
:100C5000A9FABDE8F0870146087A00F0800008B1E3
:100C6000012070470020FCE7F8B5FFF797FA064629
:100C70003F480088002875D13E480068002870D0A1
:100C800000276846FFF720FC04463B48006890F8C0
:100C9000340000F00700032825D13748006890F899
:100CA00035000099884202D23348046811E0324886
:100CB000006890F835000099884209D12E480068F4
:100CC00090F8340000F0080010B92B48046800E0E8
:100CD00001272948006890F8340020F008002649D0
:100CE000096881F8340024480068844228D02349E8
:100CF0000098087020480568046017B1284600F085
:100D000041F8204600F08CF894F8340020F00700F9
:100D100040F0030084F834001948007848B904F121
:100D20001C0105F11C00FFF740FA3046FFF73AFAC4
:100D30001CE004F11C0105F11C00FFF736FA0FE07E
:100D40000D48006800F06CF80B48006890F834001B
:100D500020F0070040F003000749096881F83400DB
:100D600000BF00BF3046FFF71DFA00BFF8BD00000E
:100D7000A00000209C000020A4000020A80000206B
:100D80001000002070B50446FFF708FA0546214818
:100D90000068844208D194F8340020F0070040F045
:100DA000030084F8340030E014F8340F20F007001A
:100DB00040F00100207014F8340900F0080070B110
:100DC00094F83520144B03EBC20004F1140142687F
:100DD000116042684A604160086000BF0EE094F80C
:100DE00035200D4B03EBC20004F114010268516081
:100DF00002680A600160486000BF00BF0749A06B3D
:100E0000096808430549086000BF2846FFF7CAF98A
:100E100070BD0000A4000020B81400209C00002039
:100E200070B50446FFF7BAF9054604F11400D0E99D
:100E300000215160D0E9001211604060006000BFE5
:100E400094F83510094A02EBC1000168814201D1D2
:100E5000012100E0002129B10548A16B0068884309
:100E6000034908602846FFF79DF970BDB8140020BB
:100E70009C0000207047F0B507460B460BB90020D8
:100E8000F0BD3946D81C20F003030C2B00D20C23F4
:100E9000486B984201D20020F2E7D1F828C0086BD5
:100EA000A0EB0C046BE0886A0219107800F00100D6
:100EB000002861D104F10C00D2F804C0ACEB0000B2
:100EC000984259D304F10C00D2F804C0ACEB000CEA
:100ED00003F11800844523D304F10C00C618886A76
:100EE000851921F00100286050686860AC60566088
:100EF000D5F804C0486B0C30844504D0886AD5F816
:100F000004C06044866003F10C00D1F820C0604446
:100F10000862D1E908C0604513D2086A486210E04F
:100F20005068D1F828C0A2EB0C0CA0EB0C00D1F853
:100F300020C060440862D1E908C0604501D2086A57
:100F4000486221F00100401C1060086B904210D1F3
:100F500006E0D1F830C0886ADCF804C06044086359
:100F6000086B007800F0010018B1D1E90BC06045B2
:100F7000EFD102F10C0083E7886A20444468486B93
:100F8000C01AA0428FD200207AE770B5064606B993
:100F900070BDA6F10C04206820F0010525F00100C9
:100FA0002060286BA04200D92C636068A96A611A8E
:100FB000401A296A081A286221462846FFF763FB6F
:100FC00000BFE5E72DE9F74F0E469246F01C20F0F2
:100FD000030404F1380B0BF1030020F0030706EBC8
:100FE0000A0020F00308B8F1180F08D9A8F118007A
:100FF000584504D3A8EB0700A0F1180902E000202F
:10100000BDE8FE8F382200212046FFF775FD0C2138
:101010002046009AFFF7F4FD12A06061A761C4F8B2
:101020001C90C4F83490A762A56A24F001002860DF
:10103000606B0C3068600020A860A06A6968084492
:10104000E06224F00100401CE16A0860606B0C3033
:10105000E16A4860606B0C30E16A8860A06A2063D6
:101060002046CDE7736D616C6C0000000FB438B59D
:10107000044606A800902046009A059900F0D8FC86
:10108000054600200090284638BC5DF814FB70B57A
:101090000346A2B118460C4600BF14F8016B00F8D5
:1010A000016B3EB902E0002500F8015B551E2A1EC7
:1010B000F9D102E0551E2A1EEFD100BF00BF18462D
:1010C00070BD00002DE9F04104460D46E01C20F003
:1010D000030625F00307BA1B214604A0FFF772FFA1
:1010E0000449086000BF00BFBDE8F0816865617019
:1010F00000000000480000200020094A108001463E
:1011000007E0084A02EBC1004060006000BF481CD5
:1011100001462029F5DB0020034A106070470000DB
:10112000A0000020B81400209C00002038B56846BC
:10113000FFF7CAF90446064804602046FFF770FE30
:10114000032084F8340004F11C00FFF774F838BD64
:10115000A400002010B5002405E0044901EBC40000
:10116000FFF784FC641C002CF7D010BDAC000020FD
:1011700070472DE9FF5F06460F4690461D46DDE9A4
:101180000EAB31460120FFF7DBFC8146B9F1000FC1
:1011900003D1002004B0BDE8F09F2846FFF79AFC79
:1011A000044624B94846FFF7F5FC0020F2E7434621
:1011B0003A46314648468DE8300CFFF7B3F94846C9
:1011C000E8E7000070B500250C4C2068A04213D061
:1011D0002068A0F11405FEF7E1FF064605F11400B2
:1011E000D0E900215160D0E9001211604060006038
:1011F00000BF3046FEF7D6FF284670BD080000202D
:101200000246054802F114010368596003680B6047
:101210000160486000BF70470800002001E0FFF750
:1012200057FBFCE710B586B0002420E0224612A14F
:1012300004A8FFF71BFF20211F22CB00104800EB62
:101240000420CDE9013203910090C4EB04110D4A52
:1012500002EBC10000230C4A04A900F017F8C4EB0C
:101260000411084A02EBC10000F07AF8641C002C5B
:10127000DCD006B010BD00007469646C65256400A4
:10128000B8130020401300201D1200082DE9FF5F55
:1012900005460C4616461F46DDE910ABDDE90E8912
:1012A000224601212846FFF7ABFC3B463246214649
:1012B00028468DE8000FFFF735F904B0BDE8F09F30
:1012C00070B50446204600F083F80546284600F035
:1012D00025F870BD70B5044694F8340000F007009E
:1012E000022802D04FF0FF3070BDFEF757FF0546D1
:1012F00004F11400FFF7DCFB04F1440000F0E0F916
:101300002046FFF73FFD2846FEF74CFF0020EBE7A5
:101310000148006870470000A400002031B5FFF7C5
:10132000F7FF0446FEF73AFF0546002020632046FB
:1013300000F02AF86A46002104F1440000F0E4F8C5
:1013400004F1440000F040F92846FEF72BFFFFF7B8
:101350008BFC206B801C08B900202063206B38BDFB
:1013600010B5044694F8351001208840A06302208F
:1013700084F834002046FFF7ADFFFFF7C9FF08B13E
:10138000FFF772FC002010BD70B5044694F83400DD
:1013900000F00705012D04D0032D02D04FF0FF30DF
:1013A00070BDFEF7FBFE06462046FFF739FD94F8B8
:1013B000340020F0070040F0020084F8340004F10B
:1013C000440000F07DF93046FEF7ECFE0020E7E730
:1013D0000146002902DA4FF0FF3014E04FF47A7230
:1013E00091FBF2F24FF47A7302FB03F01A4691FB81
:1013F000F2F302FB13124FF47A735A4302F2E7320C
:1014000092FBF3F2104470470148006870470000F7
:101410000400002070B5FEF7C1FE054610480068C4
:10142000401C0F490860FFF773FF0446206C401E04
:101430002064206C68B9E06B206494F8340040F0BC
:10144000080084F834002846FEF7ACFEFFF70CFCD9
:1014500002E02846FEF7A6FE00F004F870BD00008A
:10146000040000207CB56846FFF700FBFFF7CCFFC7
:101470000546FEF793FE06463AE022480068A0F1D2
:101480001404A06A281A6FF0004188422ED2204628
:10149000FFF7BFF8607A00F0020018B9607A20F018
:1014A0000100607204F114016846FFF7E9FAD4E91B
:1014B00007108847FFF7A8FF05466846FFF7E7FAD9
:1014C00000B115E004F11400FFF7FBFA607A00F0B8
:1014D000020060B1607A00F0010040B1607A20F053
:1014E00001006072204600F06FF800E005E000BFE8
:1014F0000448FFF7CCFA0028BFD000BF3046FEF703
:1015000051FE7CBDAC0000202DE9F04104460E46A2
:101510001546FEF743FE0746062E21D2DFE806F009
:101520000603090E131D606A28601AE028686062CD
:1015300017E0607A20F00200607212E0607A40F0FA
:10154000020060720DE0607A00F0010010B101202D
:10155000286001E00020286003E0A06A286000E025
:1015600000BF00BF3846FEF71DFE0020BDE8F08139
:1015700070B50446FEF712FE05462046FFF749F80F
:10158000607A20F0010060722846FEF70BFE2046CC
:10159000FFF712FB002070BD2DE9F84307460C460B
:1015A00015461E46DDE9088922460A213846FFF71E
:1015B00027FB4346324629463846CDF80090FFF7D0
:1015C00007F8BDE8F88300002DE9F84305464FF021
:1015D0000008FEF7E3FD81462846FFF71AF8687A0F
:1015E00020F001006872FFF70FFF696A0844A862E3
:1015F000314F009700242AE019E05DF8242011689B
:10160000142202EBC402881A826AAB6AD21A00D191
:1016100008E0826AAB6AD21A6FF000439A4200D2A5
:101620000CE000BF5DF8240000684DF824005DF870
:10163000240007EBC40149688842DED100BF2CB109
:101640005DF824000830611C4DF82100641C002C5A
:10165000D2D01A480068401C18490860084606683D
:1016600005F114010098FFF70BFA022412E006F0CE
:10167000030060B9C4F1010305F1140202EBC301D8
:10168000C4F101025DF82200FFF7FAF900E003E07F
:10169000B608641C012CEAD900BF687A40F001004A
:1016A00068724846FEF77EFDB8F1000F01D0FFF7E3
:1016B000DBFA0020BDE8F883AC000020B400002075
:1016C00070B50446607A00F0010010B94FF0FF30A9
:1016D00070BDFEF763FD05462046FEF79AFF607A6F
:1016E00020F0010060722846FEF75CFD0020EFE765
:1016F0002DE9FF4F89B081464C460A9809EB000658
:101700004E4504D24FF0FF36A6EB09000A9077E170
:101710000B980078252806D0B44202D20B980078A6
:101720002070641C69E1002526E00B98401C0B909A
:101730000B9800782D2802D145F010051CE00B987D
:1017400000782B2802D145F0040515E00B980078AD
:10175000202802D145F008050EE00B9800782328D8
:1017600002D145F0200507E00B980078302802D11F
:1017700045F0010500E000E0D7E700BF4FF0FF377C
:101780000B98007830380A2804D20BA800F078F9BA
:1017900007460EE00B9800782A280AD10B98401CC7
:1017A0000B900C9880C80C90002F02DA7F4245F015
:1017B00010054FF0FF3A0B9800782E281CD10B989B
:1017C000401C0B900B98007830380A2804D20BA8E4
:1017D00000F056F982460AE00B9800782A2806D1D4
:1017E0000B98401C0B900C9850F804AB0C90BAF17D
:1017F000000F01DA4FF0000A002004900B980078E7
:10180000682803D00B9800786C2805D10B980078D5
:1018100004900B98401C0B900A2005900B980078C0
:101820006F2873D00CDC632813D004DC25286ED01D
:1018300058286DD195E064286BD06928F9D197E0DC
:10184000702873D0732825D075286ED07828F0D1F1
:101850008AE005F0100040B904E0B44201D2202033
:101860002070641C781E071EF7DC0C9810F8041B0F
:101870000C90C8B20790B44201D207982070641C43
:1018800004E0B44201D220202070641C781E071EA0
:10189000F7DCB2E00C98006806900C98001D0C90E4
:1018A000069808B960A006904FF0000801E008F122
:1018B0000108B84504D0069810F808000028F6D1B1
:1018C000BAF1000F02DDD04500DDD04605F0100072
:1018D00048B904E0B44201D220202070641C38468C
:1018E0007F1E4045F6DC002008900BE0B44202D297
:1018F000069800782070641C0698401C0690089892
:10190000401C089008984045F0DB09E026E01FE005
:1019100032E02CE00AE0B44201D220202070641CA6
:1019200038467F1E4045F6DC67E024E0781C10B99D
:10193000082745F00105CDE9007A02950C9804C806
:10194000102331460C902046FEF7D0FE044654E0AA
:10195000B44201D225202070641C4EE0082005907E
:101960001DE045F0400500BF1020059017E000BFC6
:1019700045F0020500BF12E0B44201D225202070DC
:10198000641C0B98007830B1B44202D20B980078F6
:101990002070641C02E00B98401E0B902DE000BFED
:1019A00004986C2807D10C9850F804BB0C9005F0F3
:1019B0000200B8B116E0049868280BD10C9830F8F2
:1019C000041B1FFA81FB0C9005F0020050B10FFAC6
:1019D0008BFB07E00C9850F804BB0C9005F002005C
:1019E00000B100BFCDE9007A02955A463146204643
:1019F000059BFEF77BFE044600BF0B98401C0B9036
:101A00000B98007800287FF483AE0A9838B1B4426E
:101A100002D20020207002E0002006F8010CA4EBA6
:101A200009000DB0BDE8F08F284E554C4C29000040
:101A300037B505460C4622464FF0FF312846029B3B
:101A4000FFF756FE3EBD0020704700207047002083
:101A500070470020704710B5FEF7A0FBFEF79AFF15
:101A6000FFF708FAFFF776FBFFF746FBFEF70AFFE2
:101A7000FFF77EFBFFF7D6FBFFF758FB002010BDFA
:101A80000146002009E00B685A1C0A601A7800EB36
:101A9000800302EB4302A2F130000A681278303A68
:101AA0000A2AF0D370470000010002000100030081
:101AB0000100020001000400010002000100030017
:101AC0000100020001000500010002000100030006
:101AD00001000200010004000100020001000300F7
:101AE00001000200010006000100020001000300E5
:101AF00001000200010004000100020001000300D7
:101B000001000200010005000100020001000300C5
:101B100001000200010004000100020001000300B6
:101B200001000200010007000100020001000300A3
:101B30000100020001000400010002000100030096
:101B40000100020001000500010002000100030085
:101B50000100020001000400010002000100030076
:101B60000100020001000600010002000100030064
:101B70000100020001000400010002000100030056
:101B80000100020001000500010002000100030045
:101B90000100020001000400010002000100030036
:101BA0000100020001003031323334353637383924
:101BB00061626364656600303132333435363738FC
:101BC00039414243444546004F4B000045494E567B
:101BD000414C000045525346554C4C00454E4F4D2C
:101BE000454D000045494F004552524F52000000FC
:101BF000454E4F535953000045494E5452505400DE
:101C00004554494D4F55540045554E4B4E4F570086
:101C10004542555359000000455253455054590010
:101C2000531A00084B1A0008471A00084F1A0008F8
:101C3000501C000800000020C800000094040008A8
:101C4000181D0008C8000020F0180000A4040008B7
:101C50000024F4000000000008000020080000201C
:101C60000000000000000000C81B0008E81B00087E
:101C7000001C0008D41B0008181C0008DC1B00080E
:101C8000F01B0008101C0008E41B0008F81B0008EB
:101C9000CC1B0008081C0008000000000100000028
:101CA00050000020500000207800000002000000DA
:101CB00060000020600000202000000005000000FF
:101CC0007000002070000020300000000A000000BA
:101CD00080000020800000202C0000000C0000008C
:101CE000900000209000002028000000000000006C
:101CF00000000000000000000000000000000000E4
:101D000000000000000000000000000000000000D3
:081D10000000000000000000CB
:040000050800018965
:00000001FF
